{
  "_format": "hh-sol-artifact-1",
  "contractName": "CrowdFunding",
  "sourceName": "contracts/Crowdfund.sol",
  "abi": [
    {
      "inputs": [
        {
          "internalType": "uint256",
          "name": "",
          "type": "uint256"
        }
      ],
      "name": "campaigns",
      "outputs": [
        {
          "internalType": "address",
          "name": "owner",
          "type": "address"
        },
        {
          "internalType": "string",
          "name": "title",
          "type": "string"
        },
        {
          "internalType": "string",
          "name": "description",
          "type": "string"
        },
        {
          "internalType": "uint256",
          "name": "target",
          "type": "uint256"
        },
        {
          "internalType": "uint256",
          "name": "deadline",
          "type": "uint256"
        },
        {
          "internalType": "uint256",
          "name": "amountCollected",
          "type": "uint256"
        },
        {
          "internalType": "string",
          "name": "image",
          "type": "string"
        }
      ],
      "stateMutability": "view",
      "type": "function"
    },
    {
      "inputs": [
        {
          "internalType": "address",
          "name": "_owner",
          "type": "address"
        },
        {
          "internalType": "string",
          "name": "_title",
          "type": "string"
        },
        {
          "internalType": "string",
          "name": "_description",
          "type": "string"
        },
        {
          "internalType": "uint256",
          "name": "_target",
          "type": "uint256"
        },
        {
          "internalType": "uint256",
          "name": "_deadline",
          "type": "uint256"
        },
        {
          "internalType": "string",
          "name": "_image",
          "type": "string"
        }
      ],
      "name": "createCampaign",
      "outputs": [
        {
          "internalType": "uint256",
          "name": "",
          "type": "uint256"
        }
      ],
      "stateMutability": "nonpayable",
      "type": "function"
    },
    {
      "inputs": [
        {
          "internalType": "uint256",
          "name": "_id",
          "type": "uint256"
        }
      ],
      "name": "donateToCampaign",
      "outputs": [],
      "stateMutability": "payable",
      "type": "function"
    },
    {
      "inputs": [],
      "name": "getCampaigns",
      "outputs": [
        {
          "components": [
            {
              "internalType": "address",
              "name": "owner",
              "type": "address"
            },
            {
              "internalType": "string",
              "name": "title",
              "type": "string"
            },
            {
              "internalType": "string",
              "name": "description",
              "type": "string"
            },
            {
              "internalType": "uint256",
              "name": "target",
              "type": "uint256"
            },
            {
              "internalType": "uint256",
              "name": "deadline",
              "type": "uint256"
            },
            {
              "internalType": "uint256",
              "name": "amountCollected",
              "type": "uint256"
            },
            {
              "internalType": "string",
              "name": "image",
              "type": "string"
            },
            {
              "internalType": "address[]",
              "name": "donators",
              "type": "address[]"
            },
            {
              "internalType": "uint256[]",
              "name": "donations",
              "type": "uint256[]"
            }
          ],
          "internalType": "struct CrowdFunding.Campaign[]",
          "name": "",
          "type": "tuple[]"
        }
      ],
      "stateMutability": "view",
      "type": "function"
    },
    {
      "inputs": [
        {
          "internalType": "uint256",
          "name": "_id",
          "type": "uint256"
        }
      ],
      "name": "getDonators",
      "outputs": [
        {
          "internalType": "address[]",
          "name": "",
          "type": "address[]"
        },
        {
          "internalType": "uint256[]",
          "name": "",
          "type": "uint256[]"
        }
      ],
      "stateMutability": "view",
      "type": "function"
    },
    {
      "inputs": [],
      "name": "numberOfCampaigns",
      "outputs": [
        {
          "internalType": "uint256",
          "name": "",
          "type": "uint256"
        }
      ],
      "stateMutability": "view",
      "type": "function"
    },
    {
      "inputs": [
        {
          "internalType": "address payable",
          "name": "receiver",
          "type": "address"
        },
        {
          "internalType": "uint256",
          "name": "_amount",
          "type": "uint256"
        }
      ],
      "name": "sendBal",
      "outputs": [],
      "stateMutability": "payable",
      "type": "function"
    }
  ],
  "bytecode": "0x6080604052600060015534801561001557600080fd5b5061192f806100256000396000f3fe6080604052600436106100705760003560e01c806342a4fda81161004e57806342a4fda8146101215780639943e3a11461013d578063a6b036331461017a578063c5af725d146101a557610070565b806307ca140d146100755780630fa91fa9146100a0578063141961bc146100de575b600080fd5b34801561008157600080fd5b5061008a6101c1565b6040516100979190610b72565b60405180910390f35b3480156100ac57600080fd5b506100c760048036038101906100c29190610bcd565b6101c7565b6040516100d5929190610da8565b60405180910390f35b3480156100ea57600080fd5b5061010560048036038101906101009190610bcd565b6102d7565b6040516101189796959493929190610e7e565b60405180910390f35b61013b60048036038101906101369190610bcd565b6104d1565b005b34801561014957600080fd5b50610164600480360381019061015f9190611063565b6105af565b6040516101719190610b72565b60405180910390f35b34801561018657600080fd5b5061018f6106d6565b60405161019c919061140f565b60405180910390f35b6101bf60048036038101906101ba919061146f565b610aac565b005b60015481565b6060806000808481526020019081526020016000206007016000808581526020019081526020016000206008018180548060200260200160405190810160405280929190818152602001828054801561027557602002820191906000526020600020905b8160009054906101000a900473ffffffffffffffffffffffffffffffffffffffff1673ffffffffffffffffffffffffffffffffffffffff168152602001906001019080831161022b575b50505050509150808054806020026020016040519081016040528092919081815260200182805480156102c757602002820191906000526020600020905b8154815260200190600101908083116102b3575b5050505050905091509150915091565b60006020528060005260406000206000915090508060000160009054906101000a900473ffffffffffffffffffffffffffffffffffffffff1690806001018054610320906114de565b80601f016020809104026020016040519081016040528092919081815260200182805461034c906114de565b80156103995780601f1061036e57610100808354040283529160200191610399565b820191906000526020600020905b81548152906001019060200180831161037c57829003601f168201915b5050505050908060020180546103ae906114de565b80601f01602080910402602001604051908101604052809291908181526020018280546103da906114de565b80156104275780601f106103fc57610100808354040283529160200191610427565b820191906000526020600020905b81548152906001019060200180831161040a57829003601f168201915b50505050509080600301549080600401549080600501549080600601805461044e906114de565b80601f016020809104026020016040519081016040528092919081815260200182805461047a906114de565b80156104c75780601f1061049c576101008083540402835291602001916104c7565b820191906000526020600020905b8154815290600101906020018083116104aa57829003601f168201915b5050505050905087565b60003490506000806000848152602001908152602001600020905080600701339080600181540180825580915050600190039060005260206000200160009091909190916101000a81548173ffffffffffffffffffffffffffffffffffffffff021916908373ffffffffffffffffffffffffffffffffffffffff160217905550806008018290806001815401808255809150506001900390600052602060002001600090919091909150556105aa8160000160009054906101000a900473ffffffffffffffffffffffffffffffffffffffff1634610aac565b505050565b600080600080600154815260200190815260200160002090504281600401541061060e576040517f08c379a000000000000000000000000000000000000000000000000000000000815260040161060590611581565b60405180910390fd5b878160000160006101000a81548173ffffffffffffffffffffffffffffffffffffffff021916908373ffffffffffffffffffffffffffffffffffffffff16021790555086816001019081610662919061174d565b5085816002019081610674919061174d565b5084816003018190555083816004018190555060008160050181905550828160060190816106a2919061174d565b50600160008154809291906106b69061184e565b9190505550600180546106c99190611896565b9150509695505050505050565b6060600060015467ffffffffffffffff8111156106f6576106f5610f38565b5b60405190808252806020026020018201604052801561072f57816020015b61071c610af7565b8152602001906001900390816107145790505b50905060005b600154811015610aa4576000806000838152602001908152602001600020905080604051806101200160405290816000820160009054906101000a900473ffffffffffffffffffffffffffffffffffffffff1673ffffffffffffffffffffffffffffffffffffffff1673ffffffffffffffffffffffffffffffffffffffff1681526020016001820180546107c8906114de565b80601f01602080910402602001604051908101604052809291908181526020018280546107f4906114de565b80156108415780601f1061081657610100808354040283529160200191610841565b820191906000526020600020905b81548152906001019060200180831161082457829003601f168201915b5050505050815260200160028201805461085a906114de565b80601f0160208091040260200160405190810160405280929190818152602001828054610886906114de565b80156108d35780601f106108a8576101008083540402835291602001916108d3565b820191906000526020600020905b8154815290600101906020018083116108b657829003601f168201915b5050505050815260200160038201548152602001600482015481526020016005820154815260200160068201805461090a906114de565b80601f0160208091040260200160405190810160405280929190818152602001828054610936906114de565b80156109835780601f1061095857610100808354040283529160200191610983565b820191906000526020600020905b81548152906001019060200180831161096657829003601f168201915b5050505050815260200160078201805480602002602001604051908101604052809291908181526020018280548015610a1157602002820191906000526020600020905b8160009054906101000a900473ffffffffffffffffffffffffffffffffffffffff1673ffffffffffffffffffffffffffffffffffffffff16815260200190600101908083116109c7575b5050505050815260200160088201805480602002602001604051908101604052809291908181526020018280548015610a6957602002820191906000526020600020905b815481526020019060010190808311610a55575b505050505081525050838381518110610a8557610a846118ca565b5b6020026020010181905250508080610a9c9061184e565b915050610735565b508091505090565b8173ffffffffffffffffffffffffffffffffffffffff166108fc829081150290604051600060405180830381858888f19350505050158015610af2573d6000803e3d6000fd5b505050565b604051806101200160405280600073ffffffffffffffffffffffffffffffffffffffff16815260200160608152602001606081526020016000815260200160008152602001600081526020016060815260200160608152602001606081525090565b6000819050919050565b610b6c81610b59565b82525050565b6000602082019050610b876000830184610b63565b92915050565b6000604051905090565b600080fd5b600080fd5b610baa81610b59565b8114610bb557600080fd5b50565b600081359050610bc781610ba1565b92915050565b600060208284031215610be357610be2610b97565b5b6000610bf184828501610bb8565b91505092915050565b600081519050919050565b600082825260208201905092915050565b6000819050602082019050919050565b600073ffffffffffffffffffffffffffffffffffffffff82169050919050565b6000610c5182610c26565b9050919050565b610c6181610c46565b82525050565b6000610c738383610c58565b60208301905092915050565b6000602082019050919050565b6000610c9782610bfa565b610ca18185610c05565b9350610cac83610c16565b8060005b83811015610cdd578151610cc48882610c67565b9750610ccf83610c7f565b925050600181019050610cb0565b5085935050505092915050565b600081519050919050565b600082825260208201905092915050565b6000819050602082019050919050565b610d1f81610b59565b82525050565b6000610d318383610d16565b60208301905092915050565b6000602082019050919050565b6000610d5582610cea565b610d5f8185610cf5565b9350610d6a83610d06565b8060005b83811015610d9b578151610d828882610d25565b9750610d8d83610d3d565b925050600181019050610d6e565b5085935050505092915050565b60006040820190508181036000830152610dc28185610c8c565b90508181036020830152610dd68184610d4a565b90509392505050565b610de881610c46565b82525050565b600081519050919050565b600082825260208201905092915050565b60005b83811015610e28578082015181840152602081019050610e0d565b60008484015250505050565b6000601f19601f8301169050919050565b6000610e5082610dee565b610e5a8185610df9565b9350610e6a818560208601610e0a565b610e7381610e34565b840191505092915050565b600060e082019050610e93600083018a610ddf565b8181036020830152610ea58189610e45565b90508181036040830152610eb98188610e45565b9050610ec86060830187610b63565b610ed56080830186610b63565b610ee260a0830185610b63565b81810360c0830152610ef48184610e45565b905098975050505050505050565b610f0b81610c46565b8114610f1657600080fd5b50565b600081359050610f2881610f02565b92915050565b600080fd5b600080fd5b7f4e487b7100000000000000000000000000000000000000000000000000000000600052604160045260246000fd5b610f7082610e34565b810181811067ffffffffffffffff82111715610f8f57610f8e610f38565b5b80604052505050565b6000610fa2610b8d565b9050610fae8282610f67565b919050565b600067ffffffffffffffff821115610fce57610fcd610f38565b5b610fd782610e34565b9050602081019050919050565b82818337600083830152505050565b600061100661100184610fb3565b610f98565b90508281526020810184848401111561102257611021610f33565b5b61102d848285610fe4565b509392505050565b600082601f83011261104a57611049610f2e565b5b813561105a848260208601610ff3565b91505092915050565b60008060008060008060c087890312156110805761107f610b97565b5b600061108e89828a01610f19565b965050602087013567ffffffffffffffff8111156110af576110ae610b9c565b5b6110bb89828a01611035565b955050604087013567ffffffffffffffff8111156110dc576110db610b9c565b5b6110e889828a01611035565b94505060606110f989828a01610bb8565b935050608061110a89828a01610bb8565b92505060a087013567ffffffffffffffff81111561112b5761112a610b9c565b5b61113789828a01611035565b9150509295509295509295565b600081519050919050565b600082825260208201905092915050565b6000819050602082019050919050565b600082825260208201905092915050565b600061118c82610dee565b6111968185611170565b93506111a6818560208601610e0a565b6111af81610e34565b840191505092915050565b600082825260208201905092915050565b60006111d682610bfa565b6111e081856111ba565b93506111eb83610c16565b8060005b8381101561121c5781516112038882610c67565b975061120e83610c7f565b9250506001810190506111ef565b5085935050505092915050565b600082825260208201905092915050565b600061124582610cea565b61124f8185611229565b935061125a83610d06565b8060005b8381101561128b5781516112728882610d25565b975061127d83610d3d565b92505060018101905061125e565b5085935050505092915050565b6000610120830160008301516112b16000860182610c58565b50602083015184820360208601526112c98282611181565b915050604083015184820360408601526112e38282611181565b91505060608301516112f86060860182610d16565b50608083015161130b6080860182610d16565b5060a083015161131e60a0860182610d16565b5060c083015184820360c08601526113368282611181565b91505060e083015184820360e086015261135082826111cb565b91505061010083015184820361010086015261136c828261123a565b9150508091505092915050565b60006113858383611298565b905092915050565b6000602082019050919050565b60006113a582611144565b6113af818561114f565b9350836020820285016113c185611160565b8060005b858110156113fd57848403895281516113de8582611379565b94506113e98361138d565b925060208a019950506001810190506113c5565b50829750879550505050505092915050565b60006020820190508181036000830152611429818461139a565b905092915050565b600061143c82610c26565b9050919050565b61144c81611431565b811461145757600080fd5b50565b60008135905061146981611443565b92915050565b6000806040838503121561148657611485610b97565b5b60006114948582860161145a565b92505060206114a585828601610bb8565b9150509250929050565b7f4e487b7100000000000000000000000000000000000000000000000000000000600052602260045260246000fd5b600060028204905060018216806114f657607f821691505b602082108103611509576115086114af565b5b50919050565b7f54686520646561646c696e652073686f756c642062652061206461746520696e60008201527f20746865206675747572652e0000000000000000000000000000000000000000602082015250565b600061156b602c83610df9565b91506115768261150f565b604082019050919050565b6000602082019050818103600083015261159a8161155e565b9050919050565b60008190508160005260206000209050919050565b60006020601f8301049050919050565b600082821b905092915050565b6000600883026116037fffffffffffffffffffffffffffffffffffffffffffffffffffffffffffffffff826115c6565b61160d86836115c6565b95508019841693508086168417925050509392505050565b6000819050919050565b600061164a61164561164084610b59565b611625565b610b59565b9050919050565b6000819050919050565b6116648361162f565b61167861167082611651565b8484546115d3565b825550505050565b600090565b61168d611680565b61169881848461165b565b505050565b5b818110156116bc576116b1600082611685565b60018101905061169e565b5050565b601f821115611701576116d2816115a1565b6116db846115b6565b810160208510156116ea578190505b6116fe6116f6856115b6565b83018261169d565b50505b505050565b600082821c905092915050565b600061172460001984600802611706565b1980831691505092915050565b600061173d8383611713565b9150826002028217905092915050565b61175682610dee565b67ffffffffffffffff81111561176f5761176e610f38565b5b61177982546114de565b6117848282856116c0565b600060209050601f8311600181146117b757600084156117a5578287015190505b6117af8582611731565b865550611817565b601f1984166117c5866115a1565b60005b828110156117ed578489015182556001820191506020850194506020810190506117c8565b8683101561180a5784890151611806601f891682611713565b8355505b6001600288020188555050505b505050505050565b7f4e487b7100000000000000000000000000000000000000000000000000000000600052601160045260246000fd5b600061185982610b59565b91507fffffffffffffffffffffffffffffffffffffffffffffffffffffffffffffffff820361188b5761188a61181f565b5b600182019050919050565b60006118a182610b59565b91506118ac83610b59565b92508282039050818111156118c4576118c361181f565b5b92915050565b7f4e487b7100000000000000000000000000000000000000000000000000000000600052603260045260246000fdfea264697066735822122011a53f031c6b480d632559f243ad7e9ed602a43394ed12d307d579d126ecef8d64736f6c63430008120033",
  "linkReferences": {},
  "deployedLinkReferences": {}
}