{
  "_format": "hh-sol-artifact-1",
  "contractName": "CrowdFunding",
  "sourceName": "contracts/Crowdfund.sol",
  "abi": [
    {
      "inputs": [
        {
          "internalType": "address",
          "name": "_owner",
          "type": "address"
        },
        {
          "internalType": "string",
          "name": "_title",
          "type": "string"
        },
        {
          "internalType": "string",
          "name": "_description",
          "type": "string"
        },
        {
          "internalType": "uint256",
          "name": "_target",
          "type": "uint256"
        },
        {
          "internalType": "uint256",
          "name": "_deadline",
          "type": "uint256"
        },
        {
          "internalType": "string",
          "name": "_image",
          "type": "string"
        }
      ],
      "name": "createCampaign",
      "outputs": [
        {
          "internalType": "uint256",
          "name": "",
          "type": "uint256"
        }
      ],
      "stateMutability": "nonpayable",
      "type": "function"
    },
    {
      "inputs": [
        {
          "internalType": "uint256",
          "name": "_id",
          "type": "uint256"
        }
      ],
      "name": "donateToCampaign",
      "outputs": [],
      "stateMutability": "payable",
      "type": "function"
    },
    {
      "inputs": [
        {
          "internalType": "address payable",
          "name": "receiver",
          "type": "address"
        },
        {
          "internalType": "uint256",
          "name": "_amount",
          "type": "uint256"
        }
      ],
      "name": "sendBal",
      "outputs": [],
      "stateMutability": "payable",
      "type": "function"
    },
    {
      "inputs": [
        {
          "internalType": "uint256",
          "name": "",
          "type": "uint256"
        }
      ],
      "name": "campaigns",
      "outputs": [
        {
          "internalType": "address",
          "name": "owner",
          "type": "address"
        },
        {
          "internalType": "string",
          "name": "title",
          "type": "string"
        },
        {
          "internalType": "string",
          "name": "description",
          "type": "string"
        },
        {
          "internalType": "uint256",
          "name": "target",
          "type": "uint256"
        },
        {
          "internalType": "uint256",
          "name": "deadline",
          "type": "uint256"
        },
        {
          "internalType": "uint256",
          "name": "amountCollected",
          "type": "uint256"
        },
        {
          "internalType": "string",
          "name": "image",
          "type": "string"
        }
      ],
      "stateMutability": "view",
      "type": "function"
    },
    {
      "inputs": [],
      "name": "getCampaigns",
      "outputs": [
        {
          "components": [
            {
              "internalType": "address",
              "name": "owner",
              "type": "address"
            },
            {
              "internalType": "string",
              "name": "title",
              "type": "string"
            },
            {
              "internalType": "string",
              "name": "description",
              "type": "string"
            },
            {
              "internalType": "uint256",
              "name": "target",
              "type": "uint256"
            },
            {
              "internalType": "uint256",
              "name": "deadline",
              "type": "uint256"
            },
            {
              "internalType": "uint256",
              "name": "amountCollected",
              "type": "uint256"
            },
            {
              "internalType": "string",
              "name": "image",
              "type": "string"
            },
            {
              "internalType": "address[]",
              "name": "donators",
              "type": "address[]"
            },
            {
              "internalType": "uint256[]",
              "name": "donations",
              "type": "uint256[]"
            }
          ],
          "internalType": "struct CrowdFunding.Campaign[]",
          "name": "",
          "type": "tuple[]"
        }
      ],
      "stateMutability": "view",
      "type": "function"
    },
    {
      "inputs": [
        {
          "internalType": "uint256",
          "name": "_id",
          "type": "uint256"
        }
      ],
      "name": "getDonators",
      "outputs": [
        {
          "internalType": "address[]",
          "name": "",
          "type": "address[]"
        },
        {
          "internalType": "uint256[]",
          "name": "",
          "type": "uint256[]"
        }
      ],
      "stateMutability": "view",
      "type": "function"
    },
    {
      "inputs": [],
      "name": "numberOfCampaigns",
      "outputs": [
        {
          "internalType": "uint256",
          "name": "",
          "type": "uint256"
        }
      ],
      "stateMutability": "view",
      "type": "function"
    }
  ],
  "bytecode": "0x6080604052600060015534801561001557600080fd5b5061192c806100256000396000f3fe6080604052600436106100555760003560e01c806307ca140d1461005a5780630fa91fa914610085578063141961bc146100c357806342a4fda8146101065780639943e3a114610122578063a6b036331461015f575b600080fd5b34801561006657600080fd5b5061006f61018a565b60405161007c9190610b73565b60405180910390f35b34801561009157600080fd5b506100ac60048036038101906100a79190610bce565b610190565b6040516100ba929190610da9565b60405180910390f35b3480156100cf57600080fd5b506100ea60048036038101906100e59190610bce565b6102a0565b6040516100fd9796959493929190610e7f565b60405180910390f35b610120600480360381019061011b9190610bce565b61049a565b005b34801561012e57600080fd5b5061014960048036038101906101449190611064565b6105fb565b6040516101569190610b73565b60405180910390f35b34801561016b57600080fd5b50610174610722565b6040516101819190611410565b60405180910390f35b60015481565b6060806000808481526020019081526020016000206007016000808581526020019081526020016000206008018180548060200260200160405190810160405280929190818152602001828054801561023e57602002820191906000526020600020905b8160009054906101000a900473ffffffffffffffffffffffffffffffffffffffff1673ffffffffffffffffffffffffffffffffffffffff16815260200190600101908083116101f4575b505050505091508080548060200260200160405190810160405280929190818152602001828054801561029057602002820191906000526020600020905b81548152602001906001019080831161027c575b5050505050905091509150915091565b60006020528060005260406000206000915090508060000160009054906101000a900473ffffffffffffffffffffffffffffffffffffffff16908060010180546102e990611461565b80601f016020809104026020016040519081016040528092919081815260200182805461031590611461565b80156103625780601f1061033757610100808354040283529160200191610362565b820191906000526020600020905b81548152906001019060200180831161034557829003601f168201915b50505050509080600201805461037790611461565b80601f01602080910402602001604051908101604052809291908181526020018280546103a390611461565b80156103f05780601f106103c5576101008083540402835291602001916103f0565b820191906000526020600020905b8154815290600101906020018083116103d357829003601f168201915b50505050509080600301549080600401549080600501549080600601805461041790611461565b80601f016020809104026020016040519081016040528092919081815260200182805461044390611461565b80156104905780601f1061046557610100808354040283529160200191610490565b820191906000526020600020905b81548152906001019060200180831161047357829003601f168201915b5050505050905087565b60003490506000806000848152602001908152602001600020905080600701339080600181540180825580915050600190039060005260206000200160009091909190916101000a81548173ffffffffffffffffffffffffffffffffffffffff021916908373ffffffffffffffffffffffffffffffffffffffff1602179055508060080182908060018154018082558091505060019003906000526020600020016000909190919091505560008160000160009054906101000a900473ffffffffffffffffffffffffffffffffffffffff1673ffffffffffffffffffffffffffffffffffffffff166001604051610590906114c3565b60006040518083038185875af1925050503d80600081146105cd576040519150601f19603f3d011682016040523d82523d6000602084013e6105d2565b606091505b5050905080156105f5578282600501546105ec9190611507565b82600501819055505b50505050565b600080600080600154815260200190815260200160002090504281600401541061065a576040517f08c379a0000000000000000000000000000000000000000000000000000000008152600401610651906115ad565b60405180910390fd5b878160000160006101000a81548173ffffffffffffffffffffffffffffffffffffffff021916908373ffffffffffffffffffffffffffffffffffffffff160217905550868160010190816106ae9190611779565b50858160020190816106c09190611779565b5084816003018190555083816004018190555060008160050181905550828160060190816106ee9190611779565b50600160008154809291906107029061184b565b9190505550600180546107159190611893565b9150509695505050505050565b6060600060015467ffffffffffffffff81111561074257610741610f39565b5b60405190808252806020026020018201604052801561077b57816020015b610768610af8565b8152602001906001900390816107605790505b50905060005b600154811015610af0576000806000838152602001908152602001600020905080604051806101200160405290816000820160009054906101000a900473ffffffffffffffffffffffffffffffffffffffff1673ffffffffffffffffffffffffffffffffffffffff1673ffffffffffffffffffffffffffffffffffffffff16815260200160018201805461081490611461565b80601f016020809104026020016040519081016040528092919081815260200182805461084090611461565b801561088d5780601f106108625761010080835404028352916020019161088d565b820191906000526020600020905b81548152906001019060200180831161087057829003601f168201915b505050505081526020016002820180546108a690611461565b80601f01602080910402602001604051908101604052809291908181526020018280546108d290611461565b801561091f5780601f106108f45761010080835404028352916020019161091f565b820191906000526020600020905b81548152906001019060200180831161090257829003601f168201915b5050505050815260200160038201548152602001600482015481526020016005820154815260200160068201805461095690611461565b80601f016020809104026020016040519081016040528092919081815260200182805461098290611461565b80156109cf5780601f106109a4576101008083540402835291602001916109cf565b820191906000526020600020905b8154815290600101906020018083116109b257829003601f168201915b5050505050815260200160078201805480602002602001604051908101604052809291908181526020018280548015610a5d57602002820191906000526020600020905b8160009054906101000a900473ffffffffffffffffffffffffffffffffffffffff1673ffffffffffffffffffffffffffffffffffffffff1681526020019060010190808311610a13575b5050505050815260200160088201805480602002602001604051908101604052809291908181526020018280548015610ab557602002820191906000526020600020905b815481526020019060010190808311610aa1575b505050505081525050838381518110610ad157610ad06118c7565b5b6020026020010181905250508080610ae89061184b565b915050610781565b508091505090565b604051806101200160405280600073ffffffffffffffffffffffffffffffffffffffff16815260200160608152602001606081526020016000815260200160008152602001600081526020016060815260200160608152602001606081525090565b6000819050919050565b610b6d81610b5a565b82525050565b6000602082019050610b886000830184610b64565b92915050565b6000604051905090565b600080fd5b600080fd5b610bab81610b5a565b8114610bb657600080fd5b50565b600081359050610bc881610ba2565b92915050565b600060208284031215610be457610be3610b98565b5b6000610bf284828501610bb9565b91505092915050565b600081519050919050565b600082825260208201905092915050565b6000819050602082019050919050565b600073ffffffffffffffffffffffffffffffffffffffff82169050919050565b6000610c5282610c27565b9050919050565b610c6281610c47565b82525050565b6000610c748383610c59565b60208301905092915050565b6000602082019050919050565b6000610c9882610bfb565b610ca28185610c06565b9350610cad83610c17565b8060005b83811015610cde578151610cc58882610c68565b9750610cd083610c80565b925050600181019050610cb1565b5085935050505092915050565b600081519050919050565b600082825260208201905092915050565b6000819050602082019050919050565b610d2081610b5a565b82525050565b6000610d328383610d17565b60208301905092915050565b6000602082019050919050565b6000610d5682610ceb565b610d608185610cf6565b9350610d6b83610d07565b8060005b83811015610d9c578151610d838882610d26565b9750610d8e83610d3e565b925050600181019050610d6f565b5085935050505092915050565b60006040820190508181036000830152610dc38185610c8d565b90508181036020830152610dd78184610d4b565b90509392505050565b610de981610c47565b82525050565b600081519050919050565b600082825260208201905092915050565b60005b83811015610e29578082015181840152602081019050610e0e565b60008484015250505050565b6000601f19601f8301169050919050565b6000610e5182610def565b610e5b8185610dfa565b9350610e6b818560208601610e0b565b610e7481610e35565b840191505092915050565b600060e082019050610e94600083018a610de0565b8181036020830152610ea68189610e46565b90508181036040830152610eba8188610e46565b9050610ec96060830187610b64565b610ed66080830186610b64565b610ee360a0830185610b64565b81810360c0830152610ef58184610e46565b905098975050505050505050565b610f0c81610c47565b8114610f1757600080fd5b50565b600081359050610f2981610f03565b92915050565b600080fd5b600080fd5b7f4e487b7100000000000000000000000000000000000000000000000000000000600052604160045260246000fd5b610f7182610e35565b810181811067ffffffffffffffff82111715610f9057610f8f610f39565b5b80604052505050565b6000610fa3610b8e565b9050610faf8282610f68565b919050565b600067ffffffffffffffff821115610fcf57610fce610f39565b5b610fd882610e35565b9050602081019050919050565b82818337600083830152505050565b600061100761100284610fb4565b610f99565b90508281526020810184848401111561102357611022610f34565b5b61102e848285610fe5565b509392505050565b600082601f83011261104b5761104a610f2f565b5b813561105b848260208601610ff4565b91505092915050565b60008060008060008060c0878903121561108157611080610b98565b5b600061108f89828a01610f1a565b965050602087013567ffffffffffffffff8111156110b0576110af610b9d565b5b6110bc89828a01611036565b955050604087013567ffffffffffffffff8111156110dd576110dc610b9d565b5b6110e989828a01611036565b94505060606110fa89828a01610bb9565b935050608061110b89828a01610bb9565b92505060a087013567ffffffffffffffff81111561112c5761112b610b9d565b5b61113889828a01611036565b9150509295509295509295565b600081519050919050565b600082825260208201905092915050565b6000819050602082019050919050565b600082825260208201905092915050565b600061118d82610def565b6111978185611171565b93506111a7818560208601610e0b565b6111b081610e35565b840191505092915050565b600082825260208201905092915050565b60006111d782610bfb565b6111e181856111bb565b93506111ec83610c17565b8060005b8381101561121d5781516112048882610c68565b975061120f83610c80565b9250506001810190506111f0565b5085935050505092915050565b600082825260208201905092915050565b600061124682610ceb565b611250818561122a565b935061125b83610d07565b8060005b8381101561128c5781516112738882610d26565b975061127e83610d3e565b92505060018101905061125f565b5085935050505092915050565b6000610120830160008301516112b26000860182610c59565b50602083015184820360208601526112ca8282611182565b915050604083015184820360408601526112e48282611182565b91505060608301516112f96060860182610d17565b50608083015161130c6080860182610d17565b5060a083015161131f60a0860182610d17565b5060c083015184820360c08601526113378282611182565b91505060e083015184820360e086015261135182826111cc565b91505061010083015184820361010086015261136d828261123b565b9150508091505092915050565b60006113868383611299565b905092915050565b6000602082019050919050565b60006113a682611145565b6113b08185611150565b9350836020820285016113c285611161565b8060005b858110156113fe57848403895281516113df858261137a565b94506113ea8361138e565b925060208a019950506001810190506113c6565b50829750879550505050505092915050565b6000602082019050818103600083015261142a818461139b565b905092915050565b7f4e487b7100000000000000000000000000000000000000000000000000000000600052602260045260246000fd5b6000600282049050600182168061147957607f821691505b60208210810361148c5761148b611432565b5b50919050565b600081905092915050565b50565b60006114ad600083611492565b91506114b88261149d565b600082019050919050565b60006114ce826114a0565b9150819050919050565b7f4e487b7100000000000000000000000000000000000000000000000000000000600052601160045260246000fd5b600061151282610b5a565b915061151d83610b5a565b9250828201905080821115611535576115346114d8565b5b92915050565b7f54686520646561646c696e652073686f756c642062652061206461746520696e60008201527f20746865206675747572652e0000000000000000000000000000000000000000602082015250565b6000611597602c83610dfa565b91506115a28261153b565b604082019050919050565b600060208201905081810360008301526115c68161158a565b9050919050565b60008190508160005260206000209050919050565b60006020601f8301049050919050565b600082821b905092915050565b60006008830261162f7fffffffffffffffffffffffffffffffffffffffffffffffffffffffffffffffff826115f2565b61163986836115f2565b95508019841693508086168417925050509392505050565b6000819050919050565b600061167661167161166c84610b5a565b611651565b610b5a565b9050919050565b6000819050919050565b6116908361165b565b6116a461169c8261167d565b8484546115ff565b825550505050565b600090565b6116b96116ac565b6116c4818484611687565b505050565b5b818110156116e8576116dd6000826116b1565b6001810190506116ca565b5050565b601f82111561172d576116fe816115cd565b611707846115e2565b81016020851015611716578190505b61172a611722856115e2565b8301826116c9565b50505b505050565b600082821c905092915050565b600061175060001984600802611732565b1980831691505092915050565b6000611769838361173f565b9150826002028217905092915050565b61178282610def565b67ffffffffffffffff81111561179b5761179a610f39565b5b6117a58254611461565b6117b08282856116ec565b600060209050601f8311600181146117e357600084156117d1578287015190505b6117db858261175d565b865550611843565b601f1984166117f1866115cd565b60005b82811015611819578489015182556001820191506020850194506020810190506117f4565b868310156118365784890151611832601f89168261173f565b8355505b6001600288020188555050505b505050505050565b600061185682610b5a565b91507fffffffffffffffffffffffffffffffffffffffffffffffffffffffffffffffff8203611888576118876114d8565b5b600182019050919050565b600061189e82610b5a565b91506118a983610b5a565b92508282039050818111156118c1576118c06114d8565b5b92915050565b7f4e487b7100000000000000000000000000000000000000000000000000000000600052603260045260246000fdfea2646970667358221220d61e0abf9c0db8df02e0b39213da96e4154784af97cd430465ec8cd5a23e243764736f6c63430008120033",
  "linkReferences": {},
  "deployedLinkReferences": {}
}